S013000047454E45534953325043452E73726563F9
S11300000C9434000C9451000C9451000C94510045
S11300100C9451000C9451000C9451000C94510018
S11300200C9451000C9451000C9451000C94510008
S11300300C9451000C9451000C9451000C945100F8
S11300400C9456020C9451000C9451000C945100E1
S11300500C9451000C9451000C9451000C945100D8
S11300600C9451000C94510011241FBECFEFD8E022
S1130070DEBFCDBF11E0A0E0B1E0E6E6F5E002C0EE
S113008005900D92A230B107D9F721E0A2E0B1E0CA
S113009001C01D92AD30B207E1F70E9429020C9411
S11300A0B1020C9400008091000187FF02C05D9AA8
S11300B001C05D988091000186FF02C05C9A01C076
S11300C05C988091000182FF02C05E9A01C05E9834
S11300D08091000183FF02C02B9A01C02B9880916C
S11300E0000184FF02C0289A01C028988091000171
S11300F080FF02C0299A01C029988091000181FFE4
S113010002C02A9A01C02A9880910201882361F1D1
S1130110809100019091010193FF02C05F9A01C098
S11301205F988091000185FF02C05B9A01C05B98D3
S1130130809100019091010190FF02C05A9A01C080
S11301405A98809100019091010191FF02C0599A3F
S113015001C05998809100019091010192FF02C061
S1130160589A0895589808958091000185FF02C017
S11301705F9A01C05F985B9A5A9A599A589A08955F
S113018080FF02C0409A01C04098843009F4D0C076
S113019030F4823059F0833009F449C04CC18530C1
S11301A009F4D8C0883009F43AC145C196B186B182
S11301B096959695969586958695892B80FD2DC066
S11301C0319B0AC08091000190910101806290935B
S11301D001018093000109C0809100019091010107
S11301E08F7D90930101809300011D9B0BC0809132
S11301F000019091010180619093010180930001BD
S113020081E0089580910001909101018F7E909387
S113021001018093000181E008958FEF9FEF909397
S11302200101809300011092020180E00895359B42
S11302300AC08091000190910101816090930101B5
S11302408093000109C080910001909101018E7F8B
S11302509093010180930001349B0AC080910001B6
S1130260909101018260909301018093000109C083
S113027080910001909101018D7F90930101809301
S11302800001339B0AC080910001909101018460B8
S1130290909301018093000109C080910001909125
S11302A001018B7F9093010180930001329B0AC06E
S11302B080910001909101018860909301018093E5
S11302C0000109C08091000190910101877F909302
S11302D0010180930001319B0AC08091000190913B
S11302E001018064909301018093000109C0809111
S11302F00001909101018F7B909301018093000193
S11303001D9B0BC080910001909101018068909326
S113031001018093000181E0089580910001909192
S113032001018F77909301018093000181E008958A
S113033085E08A95F1F70000359906C086B182956B
S1130340817091E0892701C080E08170809302016F
S113035081E0089580910201882309F455C0359BFA
S11303600AC02091000130910101346030930101F1
S11303702093000109C020910001309101013B7FCD
S11303803093010120930001349B0AC020910001A5
S1130390309101013260309301012093000109C0C2
S11303A020910001309101013D7F309301012093A0
S11303B00001339B0AC0209100013091010131609A
S11303C0309301012093000109C020910001309174
S11303D001013E7F3093010120930001329B0AC04A
S11303E02091000130910101386030930101209384
S11303F0000108952091000130910101377F30936D
S11304000101209300010895809100019091010160
S11304109F60909301018093000181E008950E9400
S1130420A5026093030170930401809305019093E6
S1130430060181E0089581E00895CF93C1E08C2FF7
S11304400E94C000882319F0CF5FC930C1F7CF9153
S1130450089581E087B98FED84B98FEF8AB988B99F
S113046085B98BB90E949B020E94A50200910301E9
S1130470109104012091050130910601DC01CB01AA
S1130480801B910BA20BB30B0697A105B10560F07D
S1130490F8940E941D0280910201882311F02C9A85
S11304A001C02C980E9453007894DECF1F920F92C3
S11304B00FB60F9211242F933F934F935F936F9333
S11304C08F939F93AF93BF938091070190910801FD
S11304D0A0910901B0910A0140910B0150910C01C6
S11304E09A01285E3F4F283E63E0360720F40196C8
S11304F0A11DB11D06C00296A11DB11D9A01205D6A
S113050033408093070190930801A0930901B093AD
S11305100A0130930C0120930B01BF91AF919F917D
S11305208F916F915F914F913F912F910F900FBEDB
S11305300F901F901895789485B5836085BDEEE67D
S1130540F0E080818160808308952FB7F8946091F2
S11305500701709108018091090190910A012FBF50
S10905600895F894FFCF9A
S1050566FFFF91
S9030000FC
