:100000000C9434000C9451000C9451000C94510049
:100010000C9451000C9451000C9451000C9451001C
:100020000C9451000C9451000C9451000C9451000C
:100030000C9451000C9451000C9451000C945100FC
:100040000C9452020C9451000C9451000C945100E9
:100050000C9451000C9451000C9451000C945100DC
:100060000C9451000C94510011241FBECFEFD8E026
:10007000DEBFCDBF11E0A0E0B1E0EEE5F5E002C0EB
:1000800005900D92A230B107D9F721E0A2E0B1E0CE
:1000900001C01D92AD30B207E1F70E9426020C9418
:1000A000AD020C9400008091000187FF02C0589AB5
:1000B00001C058988091000186FF02C0599A01C082
:1000C00059988091000182FF02C0299A01C02998A5
:1000D0008091000183FF02C05F9A01C05F98809108
:1000E000000184FF02C02A9A01C02A988091000171
:1000F00080FF02C05E9A01C05E988091000181FF7E
:1001000002C0289A01C0289880910201882361F1D9
:10011000809100019091010193FF02C02B9A01C0D0
:100120002B988091000185FF02C05A9A01C05A980D
:10013000809100019091010190FF02C05B9A01C083
:100140005B98809100019091010191FF02C05C9A3F
:1001500001C05C98809100019091010192FF02C062
:100160005D9A08955D9808958091000185FF02C011
:100170002B9A01C02B985A9A5B9A5C9A5D9A0895C3
:1001800080FF02C02D9A01C02D98843009F4CCC0A4
:1001900030F4823059F0833009F445C049C18530CC
:1001A00009F4D5C0883009F437C142C186B196B18F
:1001B0008695892B80FD2DC0359B0AC0809100015A
:1001C000909101018062909301018093000109C028
:1001D00080910001909101018F7D909301018093A6
:1001E0000001349B0BC0809100019091010180615E
:1001F000909301018093000181E0089580910001B6
:10020000909101018F7E909301018093000181E024
:1002100008958FEF9FEF909301018093000110925A
:10022000020180E00895339B0AC080910001909103
:1002300001018160909301018093000109C08091C8
:100240000001909101018E7F909301018093000144
:10025000329B0AC0809100019091010182609093CD
:1002600001018093000109C080910001909101017A
:100270008D7F9093010180930001319B0AC0809192
:10028000000190910101846090930101809300012D
:1002900009C080910001909101018B7F9093010131
:1002A00080930001309B0AC0809100019091010170
:1002B0008860909301018093000109C08091000142
:1002C00090910101877F9093010180930001359BFC
:1002D0000AC0809100019091010180649093010116
:1002E0008093000109C080910001909101018F7BF2
:1002F0009093010180930001349B0BC08091000119
:10030000909101018068909301018093000181E048
:10031000089580910001909101018F7790930101E0
:100320008093000181E0089585E08A95F1F700004F
:10033000339907C086B182FB992790F981E089271C
:1003400001C080E081708093020181E00895809176
:100350000201882309F455C0339B0AC02091000193
:10036000309101013460309301012093000109C0F4
:1003700020910001309101013B7F309301012093D6
:100380000001329B0AC020910001309101013260CE
:10039000309301012093000109C0209100013091A8
:1003A00001013D7F3093010120930001319B0AC080
:1003B00020910001309101013160309301012093BF
:1003C000000109C020910001309101013E7F30936E
:1003D000010120930001309B0AC02091000130915F
:1003E00001013860309301012093000108952091AC
:1003F000000130910101377F30930101209300010A
:10040000089580910001909101019F6090930101F6
:100410008093000181E008950E94A102609303018E
:1004200070930401809305019093060181E0089583
:1004300081E00895CF93C1E08C2F0E94C0008823F3
:1004400019F0CF5FC930C1F7CF91089517B88FEF7A
:1004500084B98AB988B99FEE95B98BB90E94970281
:100460000E94A10200910301109104012091050155
:1004700030910601DC01CB01801B910BA20BB30B69
:100480000697A105B10560F0F8940E941A028091C8
:100490000201882311F02C9A01C02C980E9453006D
:1004A0007894DECF1F920F920FB60F9211242F93E4
:1004B0003F934F935F936F938F939F93AF93BF93AC
:1004C0008091070190910801A0910901B0910A0162
:1004D00040910B0150910C019A01285E3F4F283E3C
:1004E00063E0360720F40196A11DB11D06C00296F7
:1004F000A11DB11D9A01205D3340809307019093A7
:100500000801A0930901B0930A0130930C012093D4
:100510000B01BF91AF919F918F916F915F914F911F
:100520003F912F910F900FBE0F901F9018957894C8
:1005300085B5836085BDEEE6F0E0808181608083D3
:1005400008952FB7F8946091070170910801809188
:0E055000090190910A012FBF0895F894FFCF82
:02055E00FFFF9D
:00000001FF
