:100000000C9434000C9451000C9451000C94510049
:100010000C9451000C9451000C9451000C9451001C
:100020000C9451000C9451000C9451000C9451000C
:100030000C9451000C9451000C9451000C945100FC
:100040000C94F4020C9451000C9451000C94510047
:100050000C9451000C9451000C9451000C945100DC
:100060000C9451000C94510011241FBECFEFD8E026
:10007000DEBFCDBF11E0A0E0B1E0EEECF6E002C0E3
:1000800005900D92A230B107D9F721E0A2E0B1E0CE
:1000900001C01D92A231B207E1F70E9496020C94B2
:1000A00065030C94000080910A01811107C082E071
:1000B0008093090183E080930F01089583E080938A
:1000C000090182E080930F0108958091000187FF6C
:1000D00002C0589A01C058988091000186FF02C062
:1000E000599A01C059988091000182FF02C0299A53
:1000F00001C029988091000183FF02C05F9A01C06E
:100100005F988091000184FF11C025B181E090E0EB
:10011000A0E0B0E000900F0104C0880F991FAA1F53
:10012000BB1F0A94D2F7822B85B911C025B181E09B
:1001300090E0A0E0B0E000900F0104C0880F991F8C
:10014000AA1FBB1F0A94D2F78095822385B980919C
:10015000000180FF02C05E9A01C05E98809100019C
:1001600081FF02C0289A01C0289880910401882349
:1001700009F44BC0809100019091010193FF11C0DF
:1001800025B181E090E0A0E0B0E00090090104C05A
:10019000880F991FAA1FBB1F0A94D2F7822B85B91B
:1001A00011C025B181E090E0A0E0B0E0009009012D
:1001B00004C0880F991FAA1FBB1F0A94D2F780950D
:1001C000822385B98091000185FF02C05A9A01C03F
:1001D0005A98809100019091010190FF02C05B9AB2
:1001E00001C05B98809100019091010191FF02C0D4
:1001F0005C9A01C05C98809100019091010192FF8E
:1002000002C05D9A08955D9808958091000185FF70
:1002100011C025B181E090E0A0E0B0E000900901BC
:1002200004C0880F991FAA1FBB1F0A94D2F7822B04
:1002300085B911C025B181E090E0A0E0B0E0009068
:10024000090104C0880F991FAA1FBB1F0A94D2F787
:100250008095822385B95A9A5B9A5C9A5D9A089533
:1002600080FF02C02D9A01C02D98843009F4CCC0C3
:1002700030F4823059F0833009F445C049C18530EB
:1002800009F4D5C0883009F437C142C186B196B1AE
:100290008695892B80FD2DC0359B0AC08091000179
:1002A000909101018062909301018093000109C047
:1002B00080910001909101018F7D909301018093C5
:1002C0000001349B0BC0809100019091010180617D
:1002D000909301018093000181E0089580910001D5
:1002E000909101018F7E909301018093000181E044
:1002F00008958FEF9FEF909301018093000110927A
:10030000040180E00895339B0AC080910001909120
:1003100001018160909301018093000109C08091E7
:100320000001909101018E7F909301018093000163
:10033000329B0AC0809100019091010182609093EC
:1003400001018093000109C0809100019091010199
:100350008D7F9093010180930001319B0AC08091B1
:10036000000190910101846090930101809300014C
:1003700009C080910001909101018B7F9093010150
:1003800080930001309B0AC080910001909101018F
:100390008860909301018093000109C08091000161
:1003A00090910101877F9093010180930001359B1B
:1003B0000AC0809100019091010180649093010135
:1003C0008093000109C080910001909101018F7B11
:1003D0009093010180930001349B0BC08091000138
:1003E000909101018068909301018093000181E068
:1003F000089580910001909101018F779093010100
:100400008093000181E0089585E08A95F1F700006E
:10041000339907C086B182FB992790F981E089273B
:1004200001C080E081708093040181E00895809193
:100430000401882309F455C0339B0AC020910001B0
:10044000309101013460309301012093000109C013
:1004500020910001309101013B7F309301012093F5
:100460000001329B0AC020910001309101013260ED
:10047000309301012093000109C0209100013091C7
:1004800001013D7F3093010120930001319B0AC09F
:1004900020910001309101013160309301012093DE
:1004A000000109C020910001309101013E7F30938D
:1004B000010120930001309B0AC02091000130917E
:1004C00001013860309301012093000108952091CB
:1004D000000130910101377F309301012093000129
:1004E000089580910001909101019F609093010116
:1004F0008093000181E008950E9443036093050109
:1005000070930601809307019093080181E008959C
:1005100081E00895CF93C1E08C2F0E9430018823A1
:1005200019F0CF5FC930C1F7CF91089517B88FEF99
:1005300084B98AB988B99FEE95B98BB980E090E00B
:100540000E944F03817080930A010E9453000E9411
:100550003903C1E00E944303009105011091060197
:100560002091070130910801DC01CB01801B910B28
:10057000A20BB30B0497A105B105A0F1F8940E945A
:100580008A0280910401882311F02C9A01C02C98D2
:100590000E9465008091000190910101807F992760
:1005A000892BE1F4809102019091030101969093CF
:1005B00003018093020181159A40A1F41092030176
:1005C0001092020160910A016C2760930A0180E099
:1005D00090E00E9457030E94530004C01092030150
:1005E000109202017894B6CF1F920F920FB60F921D
:1005F00011242F933F934F935F936F938F939F9308
:10060000AF93BF9380910B0190910C01A0910D01CC
:10061000B0910E0140911001509111019A01285E94
:100620003F4F283E63E0360720F40196A11DB11D1F
:1006300006C00296A11DB11D9A01205D3340809332
:100640000B0190930C01A0930D01B0930E01309318
:10065000110120931001BF91AF919F918F916F91E4
:100660005F914F913F912F910F900FBE0F901F9070
:100670001895789485B5836085BDEEE6F0E08081BD
:100680008160808308952FB7F89460910B01709179
:100690000C0180910D0190910E012FBF0895F999E1
:1006A000FECF92BD81BDF89A992780B50895262F77
:1006B000F999FECF1FBA92BD81BD20BD0FB6F89447
:0E06C000FA9AF99A0FBE01960895F894FFCFAA
:0206CE00FFFF2C
:00000001FF
